{
  "transactions": [
    {
      "hash": "0xcacbc9a5cbef648ef82b83933d02e1ad695b544cff1785c0e23ff2b2d23ca6db",
      "transactionType": "CALL",
      "contractName": null,
      "contractAddress": "0xe020B01B6fbD83066aa2e8ee0CCD1eB8d9Cc70bF",
      "function": "approve(address,uint256)",
      "arguments": [
        "0x7a250d5630B4cF539739dF2C5dAcb4c659F2488D",
        "334000000000000000000"
      ],
      "transaction": {
        "type": "0x02",
        "from": "0x6c6f915b21d43107d83c47541e5d29e872d82da6",
        "to": "0xe020b01b6fbd83066aa2e8ee0ccd1eb8d9cc70bf",
        "gas": "0xf9b8",
        "value": "0x0",
        "data": "0x095ea7b30000000000000000000000007a250d5630b4cf539739df2c5dacb4c659f2488d0000000000000000000000000000000000000000000000121b2e5e6464780000",
        "nonce": "0x69",
        "accessList": []
      },
      "additionalContracts": [],
      "isFixedGasLimit": false
    },
    {
      "hash": "0xbc73c2b8c1339c4f4e5f9fc56734c51be821057703537e849035578d8310417c",
      "transactionType": "CALL",
      "contractName": null,
      "contractAddress": "0x7a250d5630B4cF539739dF2C5dAcb4c659F2488D",
      "function": "addLiquidityETH(address,uint256,uint256,uint256,address,uint256)",
      "arguments": [
        "0xe020B01B6fbD83066aa2e8ee0CCD1eB8d9Cc70bF",
        "334000000000000000000",
        "1000000000000000000",
        "10000000000000000",
        "0x6c6F915B21d43107d83c47541e5D29e872d82Da6",
        "1712609590"
      ],
      "transaction": {
        "type": "0x02",
        "from": "0x6c6f915b21d43107d83c47541e5d29e872d82da6",
        "to": "0x7a250d5630b4cf539739df2c5dacb4c659f2488d",
        "gas": "0x29a42",
        "value": "0x16345785d8a0000",
        "data": "0xf305d719000000000000000000000000e020b01b6fbd83066aa2e8ee0ccd1eb8d9cc70bf0000000000000000000000000000000000000000000000121b2e5e64647800000000000000000000000000000000000000000000000000000de0b6b3a7640000000000000000000000000000000000000000000000000000002386f26fc100000000000000000000000000006c6f915b21d43107d83c47541e5d29e872d82da60000000000000000000000000000000000000000000000000000000066145936",
        "nonce": "0x6a",
        "accessList": []
      },
      "additionalContracts": [],
      "isFixedGasLimit": false
    }
  ],
  "receipts": [
    {
      "transactionHash": "0xcacbc9a5cbef648ef82b83933d02e1ad695b544cff1785c0e23ff2b2d23ca6db",
      "transactionIndex": "0x0",
      "blockHash": "0x2b0f30216a1da47e4f9c04771768c145b774be54765cc22f10c9b1cfe74a1de9",
      "blockNumber": "0x12b4675",
      "from": "0x6c6F915B21d43107d83c47541e5D29e872d82Da6",
      "to": "0xe020B01B6fbD83066aa2e8ee0CCD1eB8d9Cc70bF",
      "cumulativeGasUsed": "0xb4cc",
      "gasUsed": "0xb4cc",
      "contractAddress": null,
      "logs": [
        {
          "address": "0xe020B01B6fbD83066aa2e8ee0CCD1eB8d9Cc70bF",
          "topics": [
            "0x8c5be1e5ebec7d5bd14f71427d1e84f3dd0314c0f7b2291e5b200ac8c7c3b925",
            "0x0000000000000000000000006c6f915b21d43107d83c47541e5d29e872d82da6",
            "0x0000000000000000000000007a250d5630b4cf539739df2c5dacb4c659f2488d"
          ],
          "data": "0x0000000000000000000000000000000000000000000000121b2e5e6464780000",
          "blockHash": "0x2b0f30216a1da47e4f9c04771768c145b774be54765cc22f10c9b1cfe74a1de9",
          "blockNumber": "0x12b4675",
          "transactionHash": "0xcacbc9a5cbef648ef82b83933d02e1ad695b544cff1785c0e23ff2b2d23ca6db",
          "transactionIndex": "0x0",
          "logIndex": "0x0",
          "removed": false
        }
      ],
      "status": "0x1",
      "logsBloom": "0x00000000000000000000000000000002000000000002000000010000000000000001000000000000000000000000000000000000000000000000000000200000000000000008000000000000000000000000000000000000000000000000000000000000000000000000000000000000000000000000000000000000000000000000000000000000014000000000000000000000000000000000000000000000020000000000000000000000000000000000000000000000000000000000000000000000000000000000010000000000000000000000000000000000000020000010000000000000000000000000000000000000000000000000000000000000",
      "type": "0x2",
      "effectiveGasPrice": "0xb2d05e02"
    },
    {
      "transactionHash": "0xbc73c2b8c1339c4f4e5f9fc56734c51be821057703537e849035578d8310417c",
      "transactionIndex": "0x0",
      "blockHash": "0x02af414ad0c55f1b99be613a55789bcc82acc985a258ec3bf644ccd72f5b207f",
      "blockNumber": "0x12b4676",
      "from": "0x6c6F915B21d43107d83c47541e5D29e872d82Da6",
      "to": "0x7a250d5630B4cF539739dF2C5dAcb4c659F2488D",
      "cumulativeGasUsed": "0x1e25d",
      "gasUsed": "0x1e25d",
      "contractAddress": null,
      "logs": [
        {
          "address": "0xe020B01B6fbD83066aa2e8ee0CCD1eB8d9Cc70bF",
          "topics": [
            "0xddf252ad1be2c89b69c2b068fc378daa952ba7f163c4a11628f55a4df523b3ef",
            "0x0000000000000000000000006c6f915b21d43107d83c47541e5d29e872d82da6",
            "0x00000000000000000000000006af8c358c0787640588734e4733a779961a2bca"
          ],
          "data": "0x0000000000000000000000000000000000000000000000121b2e5e6464780000",
          "blockHash": "0x02af414ad0c55f1b99be613a55789bcc82acc985a258ec3bf644ccd72f5b207f",
          "blockNumber": "0x12b4676",
          "transactionHash": "0xbc73c2b8c1339c4f4e5f9fc56734c51be821057703537e849035578d8310417c",
          "transactionIndex": "0x0",
          "logIndex": "0x0",
          "removed": false
        },
        {
          "address": "0xe020B01B6fbD83066aa2e8ee0CCD1eB8d9Cc70bF",
          "topics": [
            "0x8c5be1e5ebec7d5bd14f71427d1e84f3dd0314c0f7b2291e5b200ac8c7c3b925",
            "0x0000000000000000000000006c6f915b21d43107d83c47541e5d29e872d82da6",
            "0x0000000000000000000000007a250d5630b4cf539739df2c5dacb4c659f2488d"
          ],
          "data": "0x0000000000000000000000000000000000000000000000000000000000000000",
          "blockHash": "0x02af414ad0c55f1b99be613a55789bcc82acc985a258ec3bf644ccd72f5b207f",
          "blockNumber": "0x12b4676",
          "transactionHash": "0xbc73c2b8c1339c4f4e5f9fc56734c51be821057703537e849035578d8310417c",
          "transactionIndex": "0x0",
          "logIndex": "0x1",
          "removed": false
        },
        {
          "address": "0xC02aaA39b223FE8D0A0e5C4F27eAD9083C756Cc2",
          "topics": [
            "0xe1fffcc4923d04b559f4d29a8bfc6cda04eb5b0d3c460751c2402c5c5cc9109c",
            "0x0000000000000000000000007a250d5630b4cf539739df2c5dacb4c659f2488d"
          ],
          "data": "0x000000000000000000000000000000000000000000000000016345785d8a0000",
          "blockHash": "0x02af414ad0c55f1b99be613a55789bcc82acc985a258ec3bf644ccd72f5b207f",
          "blockNumber": "0x12b4676",
          "transactionHash": "0xbc73c2b8c1339c4f4e5f9fc56734c51be821057703537e849035578d8310417c",
          "transactionIndex": "0x0",
          "logIndex": "0x2",
          "removed": false
        },
        {
          "address": "0xC02aaA39b223FE8D0A0e5C4F27eAD9083C756Cc2",
          "topics": [
            "0xddf252ad1be2c89b69c2b068fc378daa952ba7f163c4a11628f55a4df523b3ef",
            "0x0000000000000000000000007a250d5630b4cf539739df2c5dacb4c659f2488d",
            "0x00000000000000000000000006af8c358c0787640588734e4733a779961a2bca"
          ],
          "data": "0x000000000000000000000000000000000000000000000000016345785d8a0000",
          "blockHash": "0x02af414ad0c55f1b99be613a55789bcc82acc985a258ec3bf644ccd72f5b207f",
          "blockNumber": "0x12b4676",
          "transactionHash": "0xbc73c2b8c1339c4f4e5f9fc56734c51be821057703537e849035578d8310417c",
          "transactionIndex": "0x0",
          "logIndex": "0x3",
          "removed": false
        },
        {
          "address": "0x06af8C358c0787640588734E4733A779961a2bca",
          "topics": [
            "0xddf252ad1be2c89b69c2b068fc378daa952ba7f163c4a11628f55a4df523b3ef",
            "0x0000000000000000000000000000000000000000000000000000000000000000",
            "0x0000000000000000000000006c6f915b21d43107d83c47541e5d29e872d82da6"
          ],
          "data": "0x00000000000000000000000000000000000000000000000050341a74c95bd3c1",
          "blockHash": "0x02af414ad0c55f1b99be613a55789bcc82acc985a258ec3bf644ccd72f5b207f",
          "blockNumber": "0x12b4676",
          "transactionHash": "0xbc73c2b8c1339c4f4e5f9fc56734c51be821057703537e849035578d8310417c",
          "transactionIndex": "0x0",
          "logIndex": "0x4",
          "removed": false
        },
        {
          "address": "0x06af8C358c0787640588734E4733A779961a2bca",
          "topics": [
            "0x1c411e9a96e071241c2f21f7726b17ae89e3cab4c78be50e062b03a9fffbbad1"
          ],
          "data": "0x0000000000000000000000000000000000000000000000000429d069189e0000000000000000000000000000000000000000000000000036518b1b2d2d680000",
          "blockHash": "0x02af414ad0c55f1b99be613a55789bcc82acc985a258ec3bf644ccd72f5b207f",
          "blockNumber": "0x12b4676",
          "transactionHash": "0xbc73c2b8c1339c4f4e5f9fc56734c51be821057703537e849035578d8310417c",
          "transactionIndex": "0x0",
          "logIndex": "0x5",
          "removed": false
        },
        {
          "address": "0x06af8C358c0787640588734E4733A779961a2bca",
          "topics": [
            "0x4c209b5fc8ad50758f13e2e1088ba56a560dff690a1c6fef26394f4c03821c4f",
            "0x0000000000000000000000007a250d5630b4cf539739df2c5dacb4c659f2488d"
          ],
          "data": "0x000000000000000000000000000000000000000000000000016345785d8a00000000000000000000000000000000000000000000000000121b2e5e6464780000",
          "blockHash": "0x02af414ad0c55f1b99be613a55789bcc82acc985a258ec3bf644ccd72f5b207f",
          "blockNumber": "0x12b4676",
          "transactionHash": "0xbc73c2b8c1339c4f4e5f9fc56734c51be821057703537e849035578d8310417c",
          "transactionIndex": "0x0",
          "logIndex": "0x6",
          "removed": false
        }
      ],
      "status": "0x1",
      "logsBloom": "0x00000000000000000000000080000002000000000002000000010000000001000001000000000000000000004000000002000000080000000000000000200000000000000008000000000008000000000000000000000000000000008000000000000000020000000000000000000800000000000008000000000010000000000080000000000000014000100000000000000001000000080000000000000000020000000000000000000000000000000000000000000000000100000000000000000002000000000000010000020000000000000000001000000000000020200010200000000000000000000000000000200000000000400000000000000000",
      "type": "0x2",
      "effectiveGasPrice": "0xb2d05e02"
    }
  ],
  "libraries": [],
  "pending": [],
  "returns": {},
  "timestamp": 1712608714,
  "chain": 1,
  "commit": "0119401"
}