{
  "transactions": [
    {
      "hash": "0x03a3e4e5d8669274286931e06f407799dc6590b530d6baff3fa2f7e453d28e3b",
      "transactionType": "CALL",
      "contractName": null,
      "contractAddress": "0xe020B01B6fbD83066aa2e8ee0CCD1eB8d9Cc70bF",
      "function": "approve(address,uint256)",
      "arguments": [
        "0x7a250d5630B4cF539739dF2C5dAcb4c659F2488D",
        "334000000000000000000"
      ],
      "transaction": {
        "type": "0x02",
        "from": "0x6c6f915b21d43107d83c47541e5d29e872d82da6",
        "to": "0xe020b01b6fbd83066aa2e8ee0ccd1eb8d9cc70bf",
        "gas": "0x8e5a",
        "value": "0x0",
        "data": "0x095ea7b30000000000000000000000007a250d5630b4cf539739df2c5dacb4c659f2488d0000000000000000000000000000000000000000000000121b2e5e6464780000",
        "nonce": "0x65",
        "accessList": []
      },
      "additionalContracts": [],
      "isFixedGasLimit": false
    },
    {
      "hash": "0xf7d0a45774819df369c6993bdde9142556373f8bf98ada8a0f4ba91d50f8ec42",
      "transactionType": "CALL",
      "contractName": null,
      "contractAddress": "0x7a250d5630B4cF539739dF2C5dAcb4c659F2488D",
      "function": "addLiquidityETH(address,uint256,uint256,uint256,address,uint256)",
      "arguments": [
        "0xe020B01B6fbD83066aa2e8ee0CCD1eB8d9Cc70bF",
        "334000000000000000000",
        "1000000000000000000",
        "10000000000000000",
        "0x6c6F915B21d43107d83c47541e5D29e872d82Da6",
        "1712595939"
      ],
      "transaction": {
        "type": "0x02",
        "from": "0x6c6f915b21d43107d83c47541e5d29e872d82da6",
        "to": "0x7a250d5630b4cf539739df2c5dacb4c659f2488d",
        "gas": "0x352ca",
        "value": "0x16345785d8a0000",
        "data": "0xf305d719000000000000000000000000e020b01b6fbd83066aa2e8ee0ccd1eb8d9cc70bf0000000000000000000000000000000000000000000000121b2e5e64647800000000000000000000000000000000000000000000000000000de0b6b3a7640000000000000000000000000000000000000000000000000000002386f26fc100000000000000000000000000006c6f915b21d43107d83c47541e5d29e872d82da600000000000000000000000000000000000000000000000000000000661423e3",
        "nonce": "0x66",
        "accessList": []
      },
      "additionalContracts": [],
      "isFixedGasLimit": false
    }
  ],
  "receipts": [
    {
      "transactionHash": "0x03a3e4e5d8669274286931e06f407799dc6590b530d6baff3fa2f7e453d28e3b",
      "transactionIndex": "0x0",
      "blockHash": "0xb13be11bb8db2dbfb05ffe7c186ff7551564e5aef0ab951f616fb14c3560c2e9",
      "blockNumber": "0x12b405a",
      "from": "0x6c6F915B21d43107d83c47541e5D29e872d82Da6",
      "to": "0xe020B01B6fbD83066aa2e8ee0CCD1eB8d9Cc70bF",
      "cumulativeGasUsed": "0x6710",
      "gasUsed": "0x6710",
      "contractAddress": null,
      "logs": [
        {
          "address": "0xe020B01B6fbD83066aa2e8ee0CCD1eB8d9Cc70bF",
          "topics": [
            "0x8c5be1e5ebec7d5bd14f71427d1e84f3dd0314c0f7b2291e5b200ac8c7c3b925",
            "0x0000000000000000000000006c6f915b21d43107d83c47541e5d29e872d82da6",
            "0x0000000000000000000000007a250d5630b4cf539739df2c5dacb4c659f2488d"
          ],
          "data": "0x0000000000000000000000000000000000000000000000121b2e5e6464780000",
          "blockHash": "0xb13be11bb8db2dbfb05ffe7c186ff7551564e5aef0ab951f616fb14c3560c2e9",
          "blockNumber": "0x12b405a",
          "transactionHash": "0x03a3e4e5d8669274286931e06f407799dc6590b530d6baff3fa2f7e453d28e3b",
          "transactionIndex": "0x0",
          "logIndex": "0x0",
          "removed": false
        }
      ],
      "status": "0x1",
      "logsBloom": "0x00000000000000000000000000000002000000000002000000010000000000000001000000000000000000000000000000000000000000000000000000200000000000000008000000000000000000000000000000000000000000000000000000000000000000000000000000000000000000000000000000000000000000000000000000000000014000000000000000000000000000000000000000000000020000000000000000000000000000000000000000000000000000000000000000000000000000000000010000000000000000000000000000000000000020000010000000000000000000000000000000000000000000000000000000000000",
      "type": "0x2",
      "effectiveGasPrice": "0xb2d05e02"
    }
  ],
  "libraries": [],
  "pending": [],
  "returns": {},
  "timestamp": 1712606332,
  "chain": 1,
  "commit": "0119401"
}